:100000000C9464000C948C000C948C000C948C0068
:100010000C948C000C948C000C948C000C948C0030
:100020000C948C000C948C000C948C000C948C0020
:100030000C948C000C948C000C948C000C948C0010
:100040000C9470060C948C000C94EC070C943A08F9
:100050000C948C000C948C000C948C000C948C00F0
:100060000C94AE040C948C000000000024002700C7
:100070002A0000000000250028002B0000000000DE
:1000800023002600290004040404040404040202DA
:100090000202020203030303030301020408102007
:1000A0004080010204081020010204081020000012
:1000B0000007000201000003040600000000000029
:1000C00000008E004A039D0911241FBECFEFD8E027
:1000D000DEBFCDBF11E0A0E0B1E0ECE3F7E102C08C
:1000E00005900D92AC33B107D9F712E0ACE3B1E063
:1000F00001C01D92AC3DB107E1F710E0C8ECD0E0C3
:1001000004C02297FE010E94980BC23CD107C9F798
:100110000E94F3090C949C0B0C94000080E491E085
:1001200064E070E042E150E023E130E00E948401AD
:100130000895FF920F931F9308E212E0C80161E057
:1001400070E00E945D06F82EC80162E070E00E9437
:100150005D063F2D20E090E0282B392B30933D01A8
:1001600020933C011F910F91FF900895EF92FF9211
:100170000F931F9300913C0110913D0148E2E42E42
:1001800042E0F42E412F552747FD5A95C70161E003
:1001900070E00E9464061070C70162E070E0402FBA
:1001A0000E9464061F910F91FF90EF900895E9B1AE
:1001B000F0E0EC70F0708091660190916701969587
:1001C000879596958795E82BF92BF0936701E09337
:1001D0006601EF70F070E55FFE4F8081282F3327B6
:1001E00027FD309530933F0120933E0121153105C5
:1001F00029F080910A01820F80930A0180910A01FF
:100200008337E0F485E060E00E94970780E491E0A6
:100210000E946A02BC0190933D0180933C018AEBED
:1002200092E04AE050E00E940C0B0E94B6008DE77D
:1002300080930A0185E061E00E94970780910A019E
:100240008838E0F085E060E00E94970780E491E064
:100250000E946602BC0190933D0180933C018AEBB1
:1002600092E04AE050E00E940C0B0E94B6008DE73D
:1002700080930A0185E061E00E94970708950E943B
:10028000D70008950F931F9382E060E00E94580703
:1002900082E061E00E94970783E060E00E945807D7
:1002A00083E061E00E94970785E061E00E945807C3
:1002B0000E94990000E411E0C8010E940D036091C2
:1002C0003C0170913D01C8010E946E0285E061E031
:1002D0000E9497070AEB12E0C80140E052EC61E08F
:1002E00070E00E947508C80160E071E00E942B0B6D
:1002F00060913C0170913D01C8014AE050E00E94CC
:100300000C0B1F910F910895FC017183608353833F
:100310004283358324830895EF92FF920F931F93B6
:10032000CF93DF93182F092F8EEA91E060E170E000
:100330000E941003212F302FC901EC0182E0E82E2A
:10034000F12C1A856B858EEA91E00E9492038EEA69
:1003500091E0612F0E9492030894E11CF11C229607
:1003600088E0E816F10469F78EEA91E00E94D5036F
:1003700090E0882309F491E0892FDF91CF911F91BC
:100380000F91FF90EF900895CF92DF92EF92FF923E
:100390000F931F93CF93DF936C018EEA91E060E19E
:1003A00070E040E250E00E94E6038EEA91E00E9495
:1003B0001A038097D4F32AE0E22EF12C80E1E816AC
:1003C000F10411F4EE24FF248EEA91E00E9423034D
:1003D000D82FC0E087010D5F1F4F000F111F0C0DBC
:1003E0001D1DF801D183C0838EEA91E00E94230392
:1003F0008C2B9D2BF80191838083F9E0EF16F1049B
:1004000021F00894E11CF11CD9CFDF91CF911F910D
:100410000F91FF90EF90DF90CF9008950F931F936F
:100420008C010E94C401F801248D358D337025594B
:100430003C4FC9011F910F9108950F931F93CF93C4
:10044000DF93EC01162F0E94C4012A853B85C90168
:1004500094609B878A87112321F49D7F9B878A87DD
:1004600003C036603B872A878A859B8591609B877E
:100470008A87CE010E948C01CE010E94C4018A8D20
:100480009B8D96FFF9CFCE010E94C4010A8D1B8D72
:100490008A859B859E7F9B878A87CE010E948C01DF
:1004A000CE010E94C4018A8D9B8D96FDF9CF15FF68
:1004B00003C020E030E004C0CE010E940E029C0187
:1004C000C901DF91CF911F910F91089560E00E94C3
:1004D0001D02089561E00E941D0208950F931F936D
:1004E000CF93DF93EC01CB018B0143E0000F111F91
:1004F0004A95E1F7880F991F080F191F0E521242F3
:10050000CE010E94C4012C853D8520703E7F30685D
:10051000C8016AE070E00E944D0B262B372B3D8707
:100520002C87CE010E948C01CE010E94C4018A8DCD
:100530009B8D96FFF9CFCE010E94C4018C859D85CD
:100540009F779D878C87CE010E948C01CE010E94EF
:10055000C4018A8D9B8D96FDF9CFDF91CF911F91BC
:100560000F9108950F931F938C01FC01808161E02E
:100570000E945807F801828161E00E945807F80143
:10058000828160E00E949707F801808160E00E940C
:10059000970761E070E080E090E00E94C406F801F7
:1005A000808161E00E94970761E070E080E090E068
:1005B0000E94C4068EEA91E00E94EA03C8010E94EC
:1005C000C40180E091E8F801958B848BC8010E94FA
:1005D0008C0164EF71E080E090E00E94C406C801E5
:1005E0000E94C40181E090E4F801938782878685A8
:1005F0009785986197878687808991898F61918B8C
:10060000808BC8010E948C016EE670E080E090E073
:100610000E94C4061F910F9108950E94B20208958E
:1006200081E08093AD0160938A011092AB0110923A
:10063000AC0108952091890130E080918801281B48
:100640003109C901089540918801809189014817B5
:1006500018F02FEF3FEF0AC0E42FF0E0E859FE4F0B
:100660008081282F30E04F5F40938801C9010895B1
:10067000E091880180918901E81718F0EFEFFFEF12
:1006800006C0F0E0E859FE4F8081E82FF0E0CF018E
:10069000089508951092B1011092B00188EE93E090
:1006A000A0E0B0E08093B2019093B301A093B401B5
:1006B000B093B5018FE191E09093AF018093AE01CB
:1006C0000895CF92DF92EF92FF920F931F93CF93F3
:1006D000DF937C016B018A018091AD018823A1F039
:1006E000C0E0D0E00DC0D701ED91FC91D601AC0F78
:1006F000BD1F0190F081E02DC7016C9109952196F5
:10070000C017D10780F304C0CB01642F0E9493046B
:10071000C801DF91CF911F910F91FF90EF90DF9073
:10072000CF900895DF93CF930F92CDB7DEB7FC0142
:1007300069838091AD018823C9F08091AC0180323A
:1007400038F081E090E09383828320E030E015C0B0
:100750008091AB01E82FF0E0E557FE4F998190833F
:100760008F5F8093AB018093AC0105C0CE010196F1
:1007700061E00E94930421E030E0C9010F90CF9125
:10078000DF9108950F93062F80918A016BE871E045
:100790004091AC0121E00E943E041092AB01109206
:1007A000AC011092AD010F91089561E00E94C20367
:1007B0000895413208F040E2862F68E671E00E9419
:1007C000F5031092880180938901089521E00E9429
:1007D000D903089510928801109289011092AB01FB
:1007E0001092AC010E943F060895382F413210F05C
:1007F00040E042C08091BA018823E1F791E09093F4
:10080000BA012093BC018FEF809327021092E2017E
:1008100041504093E3014F5F9093BB018091BB0136
:10082000330F832B8093BB018091BD01813041F454
:100830001092BD018091BB018093BB0085EC01C08B
:1008400085EE8093BC008091BA018130E1F3809104
:10085000E201841710F44091E20120E030E00AC088
:10086000FB01E20FF31FD901AE53BE4F8C91808381
:100870002F5F3F4F2417A0F3842F08950F931F93EA
:10088000582F122F413210F081E04AC08091BA01F6
:100890008823E1F782E08093BA010093BC018FEFD7
:1008A000809327021092E2014093E301A2ECB1E0B1
:1008B000FB0102C081918D938E2F861B8417D0F38C
:1008C0001092BB018091BB01550F852B8093BB011A
:1008D0008091BD01813041F41092BD018091BB0136
:1008E0008093BB0085EC01C085EE8093BC00112392
:1008F00021F08091BA018230E1F3809127028F3F8D
:1009000011F480E00DC080912702803211F482E062
:1009100007C080912702803311F084E001C083E09A
:100920001F910F910895482F613210F081E00895D2
:100930008091BA01843011F082E00895609305023D
:10094000A4EEB1E0842F9C01F90102C081918D9346
:100950008E2F841B8617D0F380E008951F920F928C
:100960000FB60F9211242F933F934F935F936F9382
:100970007F938F939F93AF93BF93EF93FF93809158
:10098000B90090E0887F90708036910509F4F2C03C
:1009900081369105CCF58832910509F47BC0893206
:1009A0009105B4F48031910509F46FC0813191054E
:1009B0003CF4009709F447C1089709F04FC165C09E
:1009C0008831910509F466C0809709F047C182C05B
:1009D0008034910509F4A4C08134910544F4803336
:1009E000910509F482C0C89709F038C189C08035E3
:1009F000910509F489C08835910509F496C08834B9
:100A0000910509F02BC1AEC08839910509F413C1D5
:100A100089399105ECF48837910509F4ABC0893721
:100A200091054CF48836910509F4A4C080379105EE
:100A300009F014C19FC08838910509F4FCC08039C1
:100A4000910509F49DC08038910509F007C198C04F
:100A5000803B910509F4C6C0813B91054CF4803A76
:100A6000910509F49FC0883A910509F0F7C0BAC012
:100A7000803C910509F4E3C0883C910509F4DFC08E
:100A8000883B910509F0EAC0C2C08091BB01809308
:100A9000BB00CFC09091E2018091E301981768F408
:100AA0009091E201E92FF0E0EE53FE4F80818093B8
:100AB000BB009F5F9093E201BCC08091BC01882382
:100AC00009F44BC085ED8093BC008091BC0084FD8F
:100AD000FCCFC2C080E28093270285ED8093BC00EA
:100AE0008091BC0084FDFCCFB7C080E380932702D7
:100AF00085ED8093BC008091BC0084FDFCCFACC030
:100B000088E3809327029BC08091E2019091BB0013
:100B1000E82FF0E0EE53FE4F90838F5F8093E20169
:100B20009091E2018091E30182C08091E201909175
:100B3000BB00E82FF0E0EE53FE4F90838F5F809371
:100B4000E2018091BC01882341F085ED8093BC00D7
:100B50008091BC0084FDFCCF7FC081E08093BD010B
:100B600084EA6EC085ED8093BC008091BC0084FD5A
:100B7000FCCF72C083E08093BA011092260259C064
:100B800080912602803208F056C080912602909112
:100B9000BB00E82FF0E0EA5FFD4F90838F5F80930A
:100BA000260247C080912602803230F4E09126026E
:100BB000F0E0EA5FFD4F108285ED8093BC008091EC
:100BC000BC0084FDFCCF1092BA0160912602E09136
:100BD000C001F091C10186E092E070E009951092A9
:100BE00026022DC084E08093BA0110920402109274
:100BF0000502E091BE01F091BF01099580910502C7
:100C0000882329F481E0809305021092E4019091F9
:100C10000402E92FF0E0EC51FE4F80818093BB008D
:100C20009F5F9093040290910402809105029817AF
:100C300010F485EC01C085E88093BC000FC085EC02
:100C40008093BC0009C01092270285ED8093BC0000
:100C50008091BC0084FDFCCF1092BA01FF91EF910E
:100C6000BF91AF919F918F917F916F915F914F91C4
:100C70003F912F910F900FBE0F901F9018951092DB
:100C8000BA0181E08093BC011092BD0182E161E074
:100C90000E94970783E161E00E949707E9EBF0E08B
:100CA00080818E7F808380818D7F808380E28093AE
:100CB000B80085E48093BC000895F999FECF72BD19
:100CC00061BDF89A80B50895F999FECF1FBA72BD3B
:100CD00061BD40BD0FB6F894FA9AF99A0FBE089517
:100CE0001F920F920FB60F9211242F933F934F93A1
:100CF0005F936F937F938F939F93AF93BF93209155
:100D00002D0230912E0240912F02509130027091AD
:100D10003102DA01C9010296A11DB11D672F6A5F78
:100D20006D3730F06D57DA01C9010396A11DB11D71
:100D30006093310280932D0290932E02A0932F0294
:100D4000B09330028091290290912A02A0912B0247
:100D5000B0912C020196A11DB11D809329029093A0
:100D60002A02A0932B02B0932C02BF91AF919F91C6
:100D70008F917F916F915F914F913F912F910F9044
:100D80000FBE0F901F9018959B01AC017FB7F89490
:100D90008091290290912A02A0912B02B0912C02FD
:100DA00066B5A89B05C06F3F19F00196A11DB11D46
:100DB0007FBFBA2FA92F982F8827860F911DA11DBD
:100DC000B11D63E0880F991FAA1FBB1F6A95D1F759
:100DD000BC012DC0FFB7F8948091290290912A029E
:100DE000A0912B02B0912C02E6B5A89B05C0EF3F65
:100DF00019F00196A11DB11DFFBFBA2FA92F982F81
:100E000088278E0F911DA11DB11DE3E0880F991F4A
:100E1000AA1FBB1FEA95D1F7861B970B885E9340EC
:100E2000C8F2215030404040504068517C4F21155D
:100E300031054105510571F60895789484B58260B5
:100E400084BD84B5816084BD85B5826085BD85B56E
:100E5000816085BDEEE6F0E0808181608083E1E81D
:100E6000F0E0108280818260808380818160808355
:100E7000E0E8F0E0808181608083E1EBF0E0808158
:100E800084608083E0EBF0E0808181608083EAE72A
:100E9000F0E08081846080838081826080838081B3
:100EA000816080838081806880831092C100089572
:100EB000CF93DF93482F50E0CA0186569F4FFC0125
:100EC00034914A575F4FFA018491882369F190E089
:100ED000880F991FFC01E859FF4FA591B491FC01BF
:100EE000EE58FF4FC591D491662351F42FB7F89473
:100EF0008C91932F909589238C93888189230BC0A3
:100F0000623061F42FB7F8948C91932F90958923D8
:100F10008C938881832B88832FBF06C09FB7F8945A
:100F20008C91832B8C939FBFDF91CF910895482F95
:100F300050E0CA0182559F4FFC012491CA01865698
:100F40009F4FFC0194914A575F4FFA01349133232C
:100F500009F440C0222351F1233071F0243028F4E9
:100F60002130A1F0223011F514C02630B1F0273025
:100F7000C1F02430D9F404C0809180008F7703C081
:100F8000809180008F7D8093800010C084B58F7722
:100F900002C084B58F7D84BD09C08091B0008F7779
:100FA00003C08091B0008F7D8093B000E32FF0E00C
:100FB000EE0FFF1FEE58FF4FA591B4912FB7F89495
:100FC000662321F48C919095892302C08C91892B02
:100FD0008C932FBF089508951F920F920FB60F9212
:100FE00011242F933F934F938F939F93EF93FF93EE
:100FF0008091C00082FD1DC04091C6002091720208
:10100000309173022F5F3F4F2F73307080917402C5
:10101000909175022817390771F0E0917202F091F2
:101020007302EE5CFD4F4083309373022093720293
:1010300002C08091C600FF91EF919F918F914F91D7
:101040003F912F910F900FBE0F901F901895E09138
:10105000C602F091C702E05CFF4F8191919120811F
:101060003181821B930B8F739070892B11F00E943A
:10107000EB0708951F920F920FB60F9211242F9332
:101080003F938F939F93EF93FF932091B6023091FC
:10109000B7028091B8029091B9022817390731F44C
:1010A0008091C1008F7D8093C10014C0E091B8028F
:1010B000F091B902EA58FD4F20818091B8029091D9
:1010C000B90201968F7390709093B9028093B80221
:1010D0002093C600FF91EF919F918F913F912F91A7
:1010E0000F900FBE0F901F901895AF92BF92DF9296
:1010F000EF92FF920F931F93CF93DF93EC017A014E
:101100008B01DD24D39491E0A92EB12CEC89FD89CB
:10111000DD2069F0C50108A002C0880F991F0A945C
:10112000E2F7808360E874E88EE190E005C0108209
:1011300060E472E48FE090E0A80197010E94600BE8
:10114000215030404040504056954795379527955F
:1011500080E12030380720F0DD2011F0DD24D6CFEB
:10116000E889F9893083EA89FB89208319A2EE890D
:10117000FF89408121E030E0C9010C8C02C0880F5A
:10118000991F0A94E2F7482B4083EE89FF8940813A
:10119000C9010D8C02C0880F991F0A94E2F7482BF1
:1011A0004083EE89FF894081C9010E8C02C0880FFF
:1011B000991F0A94E2F7482B4083EE89FF898081CA
:1011C0000F8C02C0220F331F0A94E2F720952823C8
:1011D0002083DF91CF911F910F91FF90EF90DF90CF
:1011E000BF90AF900895DC011C96ED91FC911D9786
:1011F000E05CFF4F2191319180819181281B390B57
:101200002F733070C9010895DC011C96ED91FC919B
:101210001D97E05CFF4F20813181E054F040DF01F9
:10122000AE5BBF4F8D919C9111972817390719F428
:101230002FEF3FEF07C08D919C91E80FF91F808140
:10124000282F30E0C9010895DC011C96ED91FC9136
:101250001D97E05CFF4F20813181E054F040DF01B9
:10126000AE5BBF4F8D919C9111972817390719F4E8
:101270002FEF3FEF10C08D919C911197E80FF91F50
:1012800020818D919C91119701968F73907011968A
:101290009C938E9330E0C9010895DC0191968C9166
:1012A0009197882339F05496ED91FC915597808160
:1012B00086FFF9CF91961C920895CF93DF93EC01AE
:1012C000EE85FF85E05CFF4F20813181E054F040E6
:1012D0002F5F3F4F2F733070DF01AE5BBF4F8D919B
:1012E0009C91119728173907D1F3E05CFF4F80815B
:1012F0009181E054F040E80FF91F6083EE85FF858F
:10130000E05CFF4F31832083EE89FF89208181E0FB
:1013100090E00F8C02C0880F991F0A94E2F7282BE7
:10132000208381E089A3EC89FD89808180648083AA
:1013300081E090E0DF91CF9108951092BD0210926C
:10134000BC0288EE93E0A0E0B0E08093BE029093F0
:10135000BF02A093C002B093C1028FE291E09093CC
:10136000BB028093BA0282E392E09093C70280931B
:10137000C60286E792E09093C9028093C80285EC8A
:1013800090E09093CB028093CA0284EC90E090931B
:10139000CD028093CC0280EC90E09093CF028093BA
:1013A000CE0281EC90E09093D1028093D00282EC47
:1013B00090E09093D3028093D20286EC90E09093D9
:1013C000D5028093D40284E08093D60283E0809398
:1013D000D70287E08093D80285E08093D90281E02C
:1013E0008093DA020895CF93DF930E941D070E9435
:1013F0004201C7E2D8E00E943F012097E1F30E943A
:101400002708F9CFCF92DF92EF92FF920F931F93AD
:10141000CF93DF937C016B018A01C0E0D0E00FC065
:10142000D6016D916D01D701ED91FC910190F08194
:10143000E02DC7010995C80FD91F015010400115B3
:10144000110571F7CE01DF91CF911F910F91FF90A0
:10145000EF90DF90CF900895EF92FF920F931F933C
:101460008C01DC01ED91FC910190F081E02D6DE0AB
:1014700009957C01D801ED91FC910190F081E02D5E
:10148000C8016AE009959C012E0D3F1DC9011F91FD
:101490000F91FF90EF900895CF93DF93EC016115CA
:1014A000710519F420E030E00FC0DB010D90002041
:1014B000E9F71197A61BB70BE881F9810280F38148
:1014C000E02DAD0109959C01C901DF91CF910895EF
:1014D0004F925F927F928F929F92AF92BF92CF92E4
:1014E000DF92EF92FF920F931F93DF93CF93CDB7CD
:1014F000DEB7A1970FB6F894DEBF0FBECDBF2C01AB
:10150000742ECB01223008F42AE019A231E2C32E56
:10151000D12CCC0EDD1E822E9924AA24BB24672D4B
:10152000752FA50194010E94600B79018A01C80101
:10153000B701A50194010E942E0B472D461B08946C
:10154000C108D1084A3014F4405D01C0495CF6017D
:101550004083E114F1040105110521F07E2C5F2D7B
:10156000C801DDCFC201B6010E944C0AA1960FB698
:10157000F894DEBF0FBECDBFCF91DF911F910F91C9
:10158000FF90EF90DF90CF90BF90AF909F908F90A3
:101590007F905F904F900895CF92DF92EF92FF92ED
:1015A0000F931F93CF93DF93EC016A017B01211509
:1015B000310541F4E881F9810190F081E02D642F3B
:1015C00009951FC02A303105D1F477FF17C0E88193
:1015D000F9810190F081E02D6DE209958C0144279D
:1015E0005527BA014C195D096E097F09CE012AE021
:1015F0000E94680A9801280F391F04C02AE00E943F
:10160000680A9C01C901DF91CF911F910F91FF9052
:10161000EF90DF90CF900895CF92DF92EF92FF92FC
:101620000F931F936C017B019A010027F7FC009533
:10163000102FB801A7010E94CC0A8C01C6010E949C
:101640002C0A080F191FC8011F910F91FF90EF90EE
:10165000DF90CF9008950E944C0A0895629FD001B8
:10166000739FF001829FE00DF11D649FE00DF11D5D
:10167000929FF00D839FF00D749FF00D659FF00D0C
:101680009927729FB00DE11DF91F639FB00DE11DF9
:10169000F91FBD01CF011124089597FB092E0726DC
:1016A0000AD077FD04D02ED006D000201AF4709511
:1016B00061957F4F0895F6F7909581959F4F089516
:1016C000A1E21A2EAA1BBB1BFD010DC0AA1FBB1F46
:1016D000EE1FFF1FA217B307E407F50720F0A21BB8
:1016E000B30BE40BF50B661F771F881F991F1A9425
:1016F00069F760957095809590959B01AC01BD014F
:10170000CF010895AA1BBB1B51E107C0AA1FBB1F35
:10171000A617B70710F0A61BB70B881F991F5A957D
:10172000A9F780959095BC01CD010895EE0FFF1F9C
:0C1730000590F491E02D0994F894FFCF8F
:10173C000A66616220666D3A20007D00FF0100019F
:10174C000000FFFF0000010001FF000000000092FC
:10175C000361031A03230338034903000000005DEF
:0C176C0009020AF308240904094D0900D1
:00000001FF
